{
  "contractName": "PuppyMint",
  "abi": [
    {
      "inputs": [],
      "stateMutability": "nonpayable",
      "type": "constructor"
    },
    {
      "anonymous": false,
      "inputs": [
        {
          "indexed": true,
          "internalType": "address",
          "name": "account",
          "type": "address"
        },
        {
          "indexed": true,
          "internalType": "address",
          "name": "operator",
          "type": "address"
        },
        {
          "indexed": false,
          "internalType": "bool",
          "name": "approved",
          "type": "bool"
        }
      ],
      "name": "ApprovalForAll",
      "type": "event"
    },
    {
      "anonymous": false,
      "inputs": [
        {
          "indexed": true,
          "internalType": "address",
          "name": "previousOwner",
          "type": "address"
        },
        {
          "indexed": true,
          "internalType": "address",
          "name": "newOwner",
          "type": "address"
        }
      ],
      "name": "OwnershipTransferred",
      "type": "event"
    },
    {
      "anonymous": false,
      "inputs": [
        {
          "indexed": true,
          "internalType": "address",
          "name": "operator",
          "type": "address"
        },
        {
          "indexed": true,
          "internalType": "address",
          "name": "from",
          "type": "address"
        },
        {
          "indexed": true,
          "internalType": "address",
          "name": "to",
          "type": "address"
        },
        {
          "indexed": false,
          "internalType": "uint256[]",
          "name": "ids",
          "type": "uint256[]"
        },
        {
          "indexed": false,
          "internalType": "uint256[]",
          "name": "values",
          "type": "uint256[]"
        }
      ],
      "name": "TransferBatch",
      "type": "event"
    },
    {
      "anonymous": false,
      "inputs": [
        {
          "indexed": true,
          "internalType": "address",
          "name": "operator",
          "type": "address"
        },
        {
          "indexed": true,
          "internalType": "address",
          "name": "from",
          "type": "address"
        },
        {
          "indexed": true,
          "internalType": "address",
          "name": "to",
          "type": "address"
        },
        {
          "indexed": false,
          "internalType": "uint256",
          "name": "id",
          "type": "uint256"
        },
        {
          "indexed": false,
          "internalType": "uint256",
          "name": "value",
          "type": "uint256"
        }
      ],
      "name": "TransferSingle",
      "type": "event"
    },
    {
      "anonymous": false,
      "inputs": [
        {
          "indexed": false,
          "internalType": "string",
          "name": "value",
          "type": "string"
        },
        {
          "indexed": true,
          "internalType": "uint256",
          "name": "id",
          "type": "uint256"
        }
      ],
      "name": "URI",
      "type": "event"
    },
    {
      "inputs": [
        {
          "internalType": "address",
          "name": "account",
          "type": "address"
        },
        {
          "internalType": "uint256",
          "name": "id",
          "type": "uint256"
        }
      ],
      "name": "balanceOf",
      "outputs": [
        {
          "internalType": "uint256",
          "name": "",
          "type": "uint256"
        }
      ],
      "stateMutability": "view",
      "type": "function",
      "constant": true
    },
    {
      "inputs": [
        {
          "internalType": "address[]",
          "name": "accounts",
          "type": "address[]"
        },
        {
          "internalType": "uint256[]",
          "name": "ids",
          "type": "uint256[]"
        }
      ],
      "name": "balanceOfBatch",
      "outputs": [
        {
          "internalType": "uint256[]",
          "name": "",
          "type": "uint256[]"
        }
      ],
      "stateMutability": "view",
      "type": "function",
      "constant": true
    },
    {
      "inputs": [],
      "name": "baseUriFrozen",
      "outputs": [
        {
          "internalType": "bool",
          "name": "",
          "type": "bool"
        }
      ],
      "stateMutability": "view",
      "type": "function",
      "constant": true
    },
    {
      "inputs": [],
      "name": "name",
      "outputs": [
        {
          "internalType": "string",
          "name": "",
          "type": "string"
        }
      ],
      "stateMutability": "view",
      "type": "function",
      "constant": true
    },
    {
      "inputs": [],
      "name": "nextAvailableTokenId",
      "outputs": [
        {
          "internalType": "uint256",
          "name": "",
          "type": "uint256"
        }
      ],
      "stateMutability": "view",
      "type": "function",
      "constant": true
    },
    {
      "inputs": [],
      "name": "owner",
      "outputs": [
        {
          "internalType": "address",
          "name": "",
          "type": "address"
        }
      ],
      "stateMutability": "view",
      "type": "function",
      "constant": true
    },
    {
      "inputs": [],
      "name": "renounceOwnership",
      "outputs": [],
      "stateMutability": "nonpayable",
      "type": "function"
    },
    {
      "inputs": [
        {
          "internalType": "address",
          "name": "from",
          "type": "address"
        },
        {
          "internalType": "address",
          "name": "to",
          "type": "address"
        },
        {
          "internalType": "uint256[]",
          "name": "ids",
          "type": "uint256[]"
        },
        {
          "internalType": "uint256[]",
          "name": "amounts",
          "type": "uint256[]"
        },
        {
          "internalType": "bytes",
          "name": "data",
          "type": "bytes"
        }
      ],
      "name": "safeBatchTransferFrom",
      "outputs": [],
      "stateMutability": "nonpayable",
      "type": "function"
    },
    {
      "inputs": [
        {
          "internalType": "address",
          "name": "from",
          "type": "address"
        },
        {
          "internalType": "address",
          "name": "to",
          "type": "address"
        },
        {
          "internalType": "uint256",
          "name": "id",
          "type": "uint256"
        },
        {
          "internalType": "uint256",
          "name": "amount",
          "type": "uint256"
        },
        {
          "internalType": "bytes",
          "name": "data",
          "type": "bytes"
        }
      ],
      "name": "safeTransferFrom",
      "outputs": [],
      "stateMutability": "nonpayable",
      "type": "function"
    },
    {
      "inputs": [
        {
          "internalType": "address",
          "name": "operator",
          "type": "address"
        },
        {
          "internalType": "bool",
          "name": "approved",
          "type": "bool"
        }
      ],
      "name": "setApprovalForAll",
      "outputs": [],
      "stateMutability": "nonpayable",
      "type": "function"
    },
    {
      "inputs": [
        {
          "internalType": "bytes4",
          "name": "interfaceId",
          "type": "bytes4"
        }
      ],
      "name": "supportsInterface",
      "outputs": [
        {
          "internalType": "bool",
          "name": "",
          "type": "bool"
        }
      ],
      "stateMutability": "view",
      "type": "function",
      "constant": true
    },
    {
      "inputs": [],
      "name": "symbol",
      "outputs": [
        {
          "internalType": "string",
          "name": "",
          "type": "string"
        }
      ],
      "stateMutability": "view",
      "type": "function",
      "constant": true
    },
    {
      "inputs": [
        {
          "internalType": "address",
          "name": "newOwner",
          "type": "address"
        }
      ],
      "name": "transferOwnership",
      "outputs": [],
      "stateMutability": "nonpayable",
      "type": "function"
    },
    {
      "inputs": [
        {
          "internalType": "uint256",
          "name": "",
          "type": "uint256"
        }
      ],
      "name": "uri",
      "outputs": [
        {
          "internalType": "string",
          "name": "",
          "type": "string"
        }
      ],
      "stateMutability": "view",
      "type": "function",
      "constant": true
    },
    {
      "inputs": [
        {
          "internalType": "uint256",
          "name": "",
          "type": "uint256"
        }
      ],
      "name": "valuePupByTokenId",
      "outputs": [
        {
          "internalType": "uint256",
          "name": "",
          "type": "uint256"
        }
      ],
      "stateMutability": "view",
      "type": "function",
      "constant": true
    },
    {
      "inputs": [
        {
          "internalType": "uint256",
          "name": "tokenId",
          "type": "uint256"
        },
        {
          "internalType": "uint256",
          "name": "numToMint",
          "type": "uint256"
        }
      ],
      "name": "mint",
      "outputs": [],
      "stateMutability": "nonpayable",
      "type": "function"
    },
    {
      "inputs": [
        {
          "internalType": "uint256",
          "name": "tokenId",
          "type": "uint256"
        },
        {
          "internalType": "uint256",
          "name": "numToRedeem",
          "type": "uint256"
        }
      ],
      "name": "redeem",
      "outputs": [],
      "stateMutability": "nonpayable",
      "type": "function"
    },
    {
      "inputs": [],
      "name": "contractURI",
      "outputs": [
        {
          "internalType": "string",
          "name": "",
          "type": "string"
        }
      ],
      "stateMutability": "view",
      "type": "function",
      "constant": true
    },
    {
      "inputs": [
        {
          "internalType": "uint256",
          "name": "tokenValuePup",
          "type": "uint256"
        }
      ],
      "name": "createNewToken",
      "outputs": [],
      "stateMutability": "nonpayable",
      "type": "function"
    },
    {
      "inputs": [
        {
          "internalType": "string",
          "name": "newUri",
          "type": "string"
        }
      ],
      "name": "setContractUri",
      "outputs": [],
      "stateMutability": "nonpayable",
      "type": "function"
    },
    {
      "inputs": [
        {
          "internalType": "string",
          "name": "newUri",
          "type": "string"
        }
      ],
      "name": "setBaseUri",
      "outputs": [],
      "stateMutability": "nonpayable",
      "type": "function"
    },
    {
      "inputs": [
        {
          "internalType": "address",
          "name": "owner",
          "type": "address"
        },
        {
          "internalType": "address",
          "name": "operator",
          "type": "address"
        }
      ],
      "name": "isApprovedForAll",
      "outputs": [
        {
          "internalType": "bool",
          "name": "",
          "type": "bool"
        }
      ],
      "stateMutability": "view",
      "type": "function",
      "constant": true
    },
    {
      "inputs": [],
      "name": "freezeBaseUri",
      "outputs": [],
      "stateMutability": "nonpayable",
      "type": "function"
    }
  ],
  "bytecode": "0x60806040526040518060400160405280600981526020017f5075707079436f696e0000000000000000000000000000000000000000000000815250600490805190602001906200005192919062000396565b506040518060400160405280600381526020017f5055500000000000000000000000000000000000000000000000000000000000815250600590805190602001906200009f92919062000396565b506040518060600160405280602f8152602001620043e6602f913960069080519060200190620000d192919062000396565b50604051806060016040528060338152602001620043b360339139600790805190602001906200010392919062000396565b50620001146200025360201b60201c565b600860006101000a81548173ffffffffffffffffffffffffffffffffffffffff021916908373ffffffffffffffffffffffffffffffffffffffff1602179055506103e86009556001600b556000600c60006101000a81548160ff0219169083151502179055503480156200018757600080fd5b5060068054620001979062000446565b80601f0160208091040260200160405190810160405280929190818152602001828054620001c59062000446565b8015620002165780601f10620001ea5761010080835404028352916020019162000216565b820191906000526020600020905b815481529060010190602001808311620001f857829003601f168201915b50505050506200022c81620002ac60201b60201c565b506200024d62000241620002c860201b60201c565b620002d060201b60201c565b620004ab565b60008046600181146200026f57600481146200028c57620002a4565b732696fc1896f2d5f3deaa2d91338b1d2e5f4e1d449150620002a4565b73183b665119f1289dfd446a2eba29f858ee0d322491505b508091505090565b8060029080519060200190620002c492919062000396565b5050565b600033905090565b6000600360009054906101000a900473ffffffffffffffffffffffffffffffffffffffff16905081600360006101000a81548173ffffffffffffffffffffffffffffffffffffffff021916908373ffffffffffffffffffffffffffffffffffffffff1602179055508173ffffffffffffffffffffffffffffffffffffffff168173ffffffffffffffffffffffffffffffffffffffff167f8be0079c531659141344cd1fd0a4f28419497f9722a3daafe3b4186f6b6457e060405160405180910390a35050565b828054620003a49062000446565b90600052602060002090601f016020900481019282620003c8576000855562000414565b82601f10620003e357805160ff191683800117855562000414565b8280016001018555821562000414579182015b8281111562000413578251825591602001919060010190620003f6565b5b50905062000423919062000427565b5090565b5b808211156200044257600081600090555060010162000428565b5090565b600060028204905060018216806200045f57607f821691505b602082108114156200047657620004756200047c565b5b50919050565b7f4e487b7100000000000000000000000000000000000000000000000000000000600052602260045260246000fd5b613ef880620004bb6000396000f3fe608060405234801561001057600080fd5b506004361061014c5760003560e01c806395d89b41116100c3578063e8a3d4851161007c578063e8a3d48514610389578063e985e9c5146103a7578063f242432a146103d7578063f2fde38b146103f3578063f58840521461040f578063feebf4d2146104195761014c565b806395d89b41146102c9578063a0bcfc7f146102e7578063a22cb46514610303578063b6d2c0651461031f578063ccb4807b1461034f578063e7a2d42b1461036b5761014c565b80632eb2c2d6116101155780632eb2c2d61461021b5780634e1273f414610237578063715018a6146102675780637580cdc4146102715780637cbc23731461028f5780638da5cb5b146102ab5761014c565b8062fdd58e1461015157806301ffc9a71461018157806306fdde03146101b15780630e89341c146101cf5780631b2ef1ca146101ff575b600080fd5b61016b60048036038101906101669190612a10565b610435565b60405161017891906133f9565b60405180910390f35b61019b60048036038101906101969190612ac8565b6104fe565b6040516101a8919061315c565b60405180910390f35b6101b96105e0565b6040516101c69190613177565b60405180910390f35b6101e960048036038101906101e49190612b9c565b61066e565b6040516101f69190613177565b60405180910390f35b61021960048036038101906102149190612bc9565b610702565b005b6102356004803603810190610230919061286a565b61082c565b005b610251600480360381019061024c9190612a50565b6108cd565b60405161025e9190613103565b60405180910390f35b61026f6109e6565b005b610279610a6e565b60405161028691906133f9565b60405180910390f35b6102a960048036038101906102a49190612bc9565b610a74565b005b6102b3610b8c565b6040516102c09190612fc6565b60405180910390f35b6102d1610bb6565b6040516102de9190613177565b60405180910390f35b61030160048036038101906102fc9190612b4f565b610c44565b005b61031d600480360381019061031891906129d0565b610d61565b005b61033960048036038101906103349190612b9c565b610d77565b60405161034691906133f9565b60405180910390f35b61036960048036038101906103649190612b4f565b610d8f565b005b610373610e21565b604051610380919061315c565b60405180910390f35b610391610e34565b60405161039e9190613177565b60405180910390f35b6103c160048036038101906103bc919061282a565b610ec6565b6040516103ce919061315c565b60405180910390f35b6103f160048036038101906103ec9190612939565b610eeb565b005b61040d600480360381019061040891906127fd565b610f8c565b005b610417611084565b005b610433600480360381019061042e9190612b9c565b61111d565b005b60008073ffffffffffffffffffffffffffffffffffffffff168373ffffffffffffffffffffffffffffffffffffffff1614156104a6576040517f08c379a000000000000000000000000000000000000000000000000000000000815260040161049d906131f9565b60405180910390fd5b60008083815260200190815260200160002060008473ffffffffffffffffffffffffffffffffffffffff1673ffffffffffffffffffffffffffffffffffffffff16815260200190815260200160002054905092915050565b60007fd9b67a26000000000000000000000000000000000000000000000000000000007bffffffffffffffffffffffffffffffffffffffffffffffffffffffff1916827bffffffffffffffffffffffffffffffffffffffffffffffffffffffff191614806105c957507f0e89341c000000000000000000000000000000000000000000000000000000007bffffffffffffffffffffffffffffffffffffffffffffffffffffffff1916827bffffffffffffffffffffffffffffffffffffffffffffffffffffffff1916145b806105d957506105d88261120e565b5b9050919050565b600480546105ed906136d4565b80601f0160208091040260200160405190810160405280929190818152602001828054610619906136d4565b80156106665780601f1061063b57610100808354040283529160200191610666565b820191906000526020600020905b81548152906001019060200180831161064957829003601f168201915b505050505081565b60606002805461067d906136d4565b80601f01602080910402602001604051908101604052809291908181526020018280546106a9906136d4565b80156106f65780601f106106cb576101008083540402835291602001916106f6565b820191906000526020600020905b8154815290600101906020018083116106d957829003601f168201915b50505050509050919050565b6000600a60008481526020019081526020016000205490506000811161075d576040517f08c379a0000000000000000000000000000000000000000000000000000000008152600401610754906132f9565b60405180910390fd5b6000826009548361076e91906135b2565b61077891906135b2565b9050600860009054906101000a900473ffffffffffffffffffffffffffffffffffffffff1673ffffffffffffffffffffffffffffffffffffffff166323b872dd3330846040518463ffffffff1660e01b81526004016107d993929190613049565b600060405180830381600087803b1580156107f357600080fd5b505af1158015610807573d6000803e3d6000fd5b5050505061082633858560405180602001604052806000815250611278565b50505050565b61083461140e565b73ffffffffffffffffffffffffffffffffffffffff168573ffffffffffffffffffffffffffffffffffffffff16148061087a57506108798561087461140e565b610ec6565b5b6108b9576040517f08c379a00000000000000000000000000000000000000000000000000000000081526004016108b0906132d9565b60405180910390fd5b6108c68585858585611416565b5050505050565b60608151835114610913576040517f08c379a000000000000000000000000000000000000000000000000000000000815260040161090a90613399565b60405180910390fd5b6000835167ffffffffffffffff8111156109305761092f61380d565b5b60405190808252806020026020018201604052801561095e5781602001602082028036833780820191505090505b50905060005b84518110156109db576109ab858281518110610983576109826137de565b5b602002602001015185838151811061099e5761099d6137de565b5b6020026020010151610435565b8282815181106109be576109bd6137de565b5b602002602001018181525050806109d490613737565b9050610964565b508091505092915050565b6109ee61140e565b73ffffffffffffffffffffffffffffffffffffffff16610a0c610b8c565b73ffffffffffffffffffffffffffffffffffffffff1614610a62576040517f08c379a0000000000000000000000000000000000000000000000000000000008152600401610a5990613359565b60405180910390fd5b610a6c600061172a565b565b600b5481565b610a7f3383836117f0565b6000600a600084815260200190815260200160002054905060008111610ada576040517f08c379a0000000000000000000000000000000000000000000000000000000008152600401610ad190613279565b60405180910390fd5b60008260095483610aeb91906135b2565b610af591906135b2565b9050600860009054906101000a900473ffffffffffffffffffffffffffffffffffffffff1673ffffffffffffffffffffffffffffffffffffffff1663a9059cbb33836040518363ffffffff1660e01b8152600401610b549291906130da565b600060405180830381600087803b158015610b6e57600080fd5b505af1158015610b82573d6000803e3d6000fd5b5050505050505050565b6000600360009054906101000a900473ffffffffffffffffffffffffffffffffffffffff16905090565b60058054610bc3906136d4565b80601f0160208091040260200160405190810160405280929190818152602001828054610bef906136d4565b8015610c3c5780601f10610c1157610100808354040283529160200191610c3c565b820191906000526020600020905b815481529060010190602001808311610c1f57829003601f168201915b505050505081565b610c4c61140e565b73ffffffffffffffffffffffffffffffffffffffff16610c6a610b8c565b73ffffffffffffffffffffffffffffffffffffffff1614610cc0576040517f08c379a0000000000000000000000000000000000000000000000000000000008152600401610cb790613359565b60405180910390fd5b600c60009054906101000a900460ff1615610d10576040517f08c379a0000000000000000000000000000000000000000000000000000000008152600401610d0790613299565b60405180910390fd5b610d5d82828080601f016020809104026020016040519081016040528093929190818152602001838380828437600081840152601f19601f82011690508083019250505050505050611a0d565b5050565b610d73610d6c61140e565b8383611a27565b5050565b600a6020528060005260406000206000915090505481565b610d9761140e565b73ffffffffffffffffffffffffffffffffffffffff16610db5610b8c565b73ffffffffffffffffffffffffffffffffffffffff1614610e0b576040517f08c379a0000000000000000000000000000000000000000000000000000000008152600401610e0290613359565b60405180910390fd5b818160079190610e1c929190612454565b505050565b600c60009054906101000a900460ff1681565b606060078054610e43906136d4565b80601f0160208091040260200160405190810160405280929190818152602001828054610e6f906136d4565b8015610ebc5780601f10610e9157610100808354040283529160200191610ebc565b820191906000526020600020905b815481529060010190602001808311610e9f57829003601f168201915b5050505050905090565b6000610ed28383611b94565b80610ee35750610ee28383611cdb565b5b905092915050565b610ef361140e565b73ffffffffffffffffffffffffffffffffffffffff168573ffffffffffffffffffffffffffffffffffffffff161480610f395750610f3885610f3361140e565b610ec6565b5b610f78576040517f08c379a0000000000000000000000000000000000000000000000000000000008152600401610f6f90613259565b60405180910390fd5b610f858585858585611d6f565b5050505050565b610f9461140e565b73ffffffffffffffffffffffffffffffffffffffff16610fb2610b8c565b73ffffffffffffffffffffffffffffffffffffffff1614611008576040517f08c379a0000000000000000000000000000000000000000000000000000000008152600401610fff90613359565b60405180910390fd5b600073ffffffffffffffffffffffffffffffffffffffff168173ffffffffffffffffffffffffffffffffffffffff161415611078576040517f08c379a000000000000000000000000000000000000000000000000000000000815260040161106f90613219565b60405180910390fd5b6110818161172a565b50565b61108c61140e565b73ffffffffffffffffffffffffffffffffffffffff166110aa610b8c565b73ffffffffffffffffffffffffffffffffffffffff1614611100576040517f08c379a00000000000000000000000000000000000000000000000000000000081526004016110f790613359565b60405180910390fd5b6001600c60006101000a81548160ff021916908315150217905550565b61112561140e565b73ffffffffffffffffffffffffffffffffffffffff16611143610b8c565b73ffffffffffffffffffffffffffffffffffffffff1614611199576040517f08c379a000000000000000000000000000000000000000000000000000000000815260040161119090613359565b60405180910390fd5b600081116111dc576040517f08c379a00000000000000000000000000000000000000000000000000000000081526004016111d3906131d9565b60405180910390fd5b80600a6000600b548152602001908152602001600020819055506001600b54611205919061355c565b600b8190555050565b60007f01ffc9a7000000000000000000000000000000000000000000000000000000007bffffffffffffffffffffffffffffffffffffffffffffffffffffffff1916827bffffffffffffffffffffffffffffffffffffffffffffffffffffffff1916149050919050565b600073ffffffffffffffffffffffffffffffffffffffff168473ffffffffffffffffffffffffffffffffffffffff1614156112e8576040517f08c379a00000000000000000000000000000000000000000000000000000000081526004016112df906133d9565b60405180910390fd5b60006112f261140e565b90506113138160008761130488611ff1565b61130d88611ff1565b8761206b565b8260008086815260200190815260200160002060008773ffffffffffffffffffffffffffffffffffffffff1673ffffffffffffffffffffffffffffffffffffffff1681526020019081526020016000206000828254611372919061355c565b925050819055508473ffffffffffffffffffffffffffffffffffffffff16600073ffffffffffffffffffffffffffffffffffffffff168273ffffffffffffffffffffffffffffffffffffffff167fc3d58168c5ae7397731d063d5bbf3d657854427343f4c083240f7aacaa2d0f6287876040516113f0929190613414565b60405180910390a461140781600087878787612073565b5050505050565b600033905090565b815183511461145a576040517f08c379a0000000000000000000000000000000000000000000000000000000008152600401611451906133b9565b60405180910390fd5b600073ffffffffffffffffffffffffffffffffffffffff168473ffffffffffffffffffffffffffffffffffffffff1614156114ca576040517f08c379a00000000000000000000000000000000000000000000000000000000081526004016114c1906132b9565b60405180910390fd5b60006114d461140e565b90506114e481878787878761206b565b60005b8451811015611695576000858281518110611505576115046137de565b5b602002602001015190506000858381518110611524576115236137de565b5b60200260200101519050600080600084815260200190815260200160002060008b73ffffffffffffffffffffffffffffffffffffffff1673ffffffffffffffffffffffffffffffffffffffff168152602001908152602001600020549050818110156115c5576040517f08c379a00000000000000000000000000000000000000000000000000000000081526004016115bc90613339565b60405180910390fd5b81810360008085815260200190815260200160002060008c73ffffffffffffffffffffffffffffffffffffffff1673ffffffffffffffffffffffffffffffffffffffff168152602001908152602001600020819055508160008085815260200190815260200160002060008b73ffffffffffffffffffffffffffffffffffffffff1673ffffffffffffffffffffffffffffffffffffffff168152602001908152602001600020600082825461167a919061355c565b925050819055505050508061168e90613737565b90506114e7565b508473ffffffffffffffffffffffffffffffffffffffff168673ffffffffffffffffffffffffffffffffffffffff168273ffffffffffffffffffffffffffffffffffffffff167f4a39dc06d4c0dbc64b70af90fd698a233a518aa5d07e595d983b8c0526c8f7fb878760405161170c929190613125565b60405180910390a461172281878787878761225a565b505050505050565b6000600360009054906101000a900473ffffffffffffffffffffffffffffffffffffffff16905081600360006101000a81548173ffffffffffffffffffffffffffffffffffffffff021916908373ffffffffffffffffffffffffffffffffffffffff1602179055508173ffffffffffffffffffffffffffffffffffffffff168173ffffffffffffffffffffffffffffffffffffffff167f8be0079c531659141344cd1fd0a4f28419497f9722a3daafe3b4186f6b6457e060405160405180910390a35050565b600073ffffffffffffffffffffffffffffffffffffffff168373ffffffffffffffffffffffffffffffffffffffff161415611860576040517f08c379a000000000000000000000000000000000000000000000000000000000815260040161185790613319565b60405180910390fd5b600061186a61140e565b905061189a8185600061187c87611ff1565b61188587611ff1565b6040518060200160405280600081525061206b565b600080600085815260200190815260200160002060008673ffffffffffffffffffffffffffffffffffffffff1673ffffffffffffffffffffffffffffffffffffffff16815260200190815260200160002054905082811015611931576040517f08c379a000000000000000000000000000000000000000000000000000000000815260040161192890613239565b60405180910390fd5b82810360008086815260200190815260200160002060008773ffffffffffffffffffffffffffffffffffffffff1673ffffffffffffffffffffffffffffffffffffffff16815260200190815260200160002081905550600073ffffffffffffffffffffffffffffffffffffffff168573ffffffffffffffffffffffffffffffffffffffff168373ffffffffffffffffffffffffffffffffffffffff167fc3d58168c5ae7397731d063d5bbf3d657854427343f4c083240f7aacaa2d0f6287876040516119fe929190613414565b60405180910390a45050505050565b8060029080519060200190611a239291906124da565b5050565b8173ffffffffffffffffffffffffffffffffffffffff168373ffffffffffffffffffffffffffffffffffffffff161415611a96576040517f08c379a0000000000000000000000000000000000000000000000000000000008152600401611a8d90613379565b60405180910390fd5b80600160008573ffffffffffffffffffffffffffffffffffffffff1673ffffffffffffffffffffffffffffffffffffffff16815260200190815260200160002060008473ffffffffffffffffffffffffffffffffffffffff1673ffffffffffffffffffffffffffffffffffffffff16815260200190815260200160002060006101000a81548160ff0219169083151502179055508173ffffffffffffffffffffffffffffffffffffffff168373ffffffffffffffffffffffffffffffffffffffff167f17307eab39ab6107e8899845ad3d59bd9653f200f220920489ca2b5937696c3183604051611b87919061315c565b60405180910390a3505050565b6000804660018114611bad5760048114611bc957611be1565b73a5409ec958c83c3f309868babaca7c86dcb077c19150611be1565b73f57b2c51ded3a29e6891aba85459d600256cf31791505b50600073ffffffffffffffffffffffffffffffffffffffff168173ffffffffffffffffffffffffffffffffffffffff1614158015611cd257508273ffffffffffffffffffffffffffffffffffffffff168173ffffffffffffffffffffffffffffffffffffffff1663c4552791866040518263ffffffff1660e01b8152600401611c6a9190612fc6565b60206040518083038186803b158015611c8257600080fd5b505afa158015611c96573d6000803e3d6000fd5b505050506040513d601f19601f82011682018060405250810190611cba9190612b22565b73ffffffffffffffffffffffffffffffffffffffff16145b91505092915050565b6000600160008473ffffffffffffffffffffffffffffffffffffffff1673ffffffffffffffffffffffffffffffffffffffff16815260200190815260200160002060008373ffffffffffffffffffffffffffffffffffffffff1673ffffffffffffffffffffffffffffffffffffffff16815260200190815260200160002060009054906101000a900460ff16905092915050565b600073ffffffffffffffffffffffffffffffffffffffff168473ffffffffffffffffffffffffffffffffffffffff161415611ddf576040517f08c379a0000000000000000000000000000000000000000000000000000000008152600401611dd6906132b9565b60405180910390fd5b6000611de961140e565b9050611e09818787611dfa88611ff1565b611e0388611ff1565b8761206b565b600080600086815260200190815260200160002060008873ffffffffffffffffffffffffffffffffffffffff1673ffffffffffffffffffffffffffffffffffffffff16815260200190815260200160002054905083811015611ea0576040517f08c379a0000000000000000000000000000000000000000000000000000000008152600401611e9790613339565b60405180910390fd5b83810360008087815260200190815260200160002060008973ffffffffffffffffffffffffffffffffffffffff1673ffffffffffffffffffffffffffffffffffffffff168152602001908152602001600020819055508360008087815260200190815260200160002060008873ffffffffffffffffffffffffffffffffffffffff1673ffffffffffffffffffffffffffffffffffffffff1681526020019081526020016000206000828254611f55919061355c565b925050819055508573ffffffffffffffffffffffffffffffffffffffff168773ffffffffffffffffffffffffffffffffffffffff168373ffffffffffffffffffffffffffffffffffffffff167fc3d58168c5ae7397731d063d5bbf3d657854427343f4c083240f7aacaa2d0f628888604051611fd2929190613414565b60405180910390a4611fe8828888888888612073565b50505050505050565b60606000600167ffffffffffffffff8111156120105761200f61380d565b5b60405190808252806020026020018201604052801561203e5781602001602082028036833780820191505090505b5090508281600081518110612056576120556137de565b5b60200260200101818152505080915050919050565b505050505050565b6120928473ffffffffffffffffffffffffffffffffffffffff16612441565b15612252578373ffffffffffffffffffffffffffffffffffffffff1663f23a6e6187878686866040518663ffffffff1660e01b81526004016120d8959493929190613080565b602060405180830381600087803b1580156120f257600080fd5b505af192505050801561212357506040513d601f19601f820116820180604052508101906121209190612af5565b60015b6121c95761212f61383c565b806308c379a0141561218c5750612144613db9565b8061214f575061218e565b806040517f08c379a00000000000000000000000000000000000000000000000000000000081526004016121839190613177565b60405180910390fd5b505b6040517f08c379a00000000000000000000000000000000000000000000000000000000081526004016121c090613199565b60405180910390fd5b63f23a6e6160e01b7bffffffffffffffffffffffffffffffffffffffffffffffffffffffff1916817bffffffffffffffffffffffffffffffffffffffffffffffffffffffff191614612250576040517f08c379a0000000000000000000000000000000000000000000000000000000008152600401612247906131b9565b60405180910390fd5b505b505050505050565b6122798473ffffffffffffffffffffffffffffffffffffffff16612441565b15612439578373ffffffffffffffffffffffffffffffffffffffff1663bc197c8187878686866040518663ffffffff1660e01b81526004016122bf959493929190612fe1565b602060405180830381600087803b1580156122d957600080fd5b505af192505050801561230a57506040513d601f19601f820116820180604052508101906123079190612af5565b60015b6123b05761231661383c565b806308c379a01415612373575061232b613db9565b806123365750612375565b806040517f08c379a000000000000000000000000000000000000000000000000000000000815260040161236a9190613177565b60405180910390fd5b505b6040517f08c379a00000000000000000000000000000000000000000000000000000000081526004016123a790613199565b60405180910390fd5b63bc197c8160e01b7bffffffffffffffffffffffffffffffffffffffffffffffffffffffff1916817bffffffffffffffffffffffffffffffffffffffffffffffffffffffff191614612437576040517f08c379a000000000000000000000000000000000000000000000000000000000815260040161242e906131b9565b60405180910390fd5b505b505050505050565b600080823b905060008111915050919050565b828054612460906136d4565b90600052602060002090601f01602090048101928261248257600085556124c9565b82601f1061249b57803560ff19168380011785556124c9565b828001600101855582156124c9579182015b828111156124c85782358255916020019190600101906124ad565b5b5090506124d69190612560565b5090565b8280546124e6906136d4565b90600052602060002090601f016020900481019282612508576000855561254f565b82601f1061252157805160ff191683800117855561254f565b8280016001018555821561254f579182015b8281111561254e578251825591602001919060010190612533565b5b50905061255c9190612560565b5090565b5b80821115612579576000816000905550600101612561565b5090565b600061259061258b84613462565b61343d565b905080838252602082019050828560208602820111156125b3576125b2613868565b5b60005b858110156125e357816125c9888261269f565b8452602084019350602083019250506001810190506125b6565b5050509392505050565b60006126006125fb8461348e565b61343d565b9050808382526020820190508285602086028201111561262357612622613868565b5b60005b85811015612653578161263988826127e8565b845260208401935060208301925050600181019050612626565b5050509392505050565b600061267061266b846134ba565b61343d565b90508281526020810184848401111561268c5761268b61386d565b5b612697848285613692565b509392505050565b6000813590506126ae81613e4f565b92915050565b600082601f8301126126c9576126c8613863565b5b81356126d984826020860161257d565b91505092915050565b600082601f8301126126f7576126f6613863565b5b81356127078482602086016125ed565b91505092915050565b60008135905061271f81613e66565b92915050565b60008135905061273481613e7d565b92915050565b60008151905061274981613e7d565b92915050565b600082601f83011261276457612763613863565b5b813561277484826020860161265d565b91505092915050565b60008151905061278c81613e94565b92915050565b60008083601f8401126127a8576127a7613863565b5b8235905067ffffffffffffffff8111156127c5576127c461385e565b5b6020830191508360018202830111156127e1576127e0613868565b5b9250929050565b6000813590506127f781613eab565b92915050565b60006020828403121561281357612812613877565b5b60006128218482850161269f565b91505092915050565b6000806040838503121561284157612840613877565b5b600061284f8582860161269f565b92505060206128608582860161269f565b9150509250929050565b600080600080600060a0868803121561288657612885613877565b5b60006128948882890161269f565b95505060206128a58882890161269f565b945050604086013567ffffffffffffffff8111156128c6576128c5613872565b5b6128d2888289016126e2565b935050606086013567ffffffffffffffff8111156128f3576128f2613872565b5b6128ff888289016126e2565b925050608086013567ffffffffffffffff8111156129205761291f613872565b5b61292c8882890161274f565b9150509295509295909350565b600080600080600060a0868803121561295557612954613877565b5b60006129638882890161269f565b95505060206129748882890161269f565b9450506040612985888289016127e8565b9350506060612996888289016127e8565b925050608086013567ffffffffffffffff8111156129b7576129b6613872565b5b6129c38882890161274f565b9150509295509295909350565b600080604083850312156129e7576129e6613877565b5b60006129f58582860161269f565b9250506020612a0685828601612710565b9150509250929050565b60008060408385031215612a2757612a26613877565b5b6000612a358582860161269f565b9250506020612a46858286016127e8565b9150509250929050565b60008060408385031215612a6757612a66613877565b5b600083013567ffffffffffffffff811115612a8557612a84613872565b5b612a91858286016126b4565b925050602083013567ffffffffffffffff811115612ab257612ab1613872565b5b612abe858286016126e2565b9150509250929050565b600060208284031215612ade57612add613877565b5b6000612aec84828501612725565b91505092915050565b600060208284031215612b0b57612b0a613877565b5b6000612b198482850161273a565b91505092915050565b600060208284031215612b3857612b37613877565b5b6000612b468482850161277d565b91505092915050565b60008060208385031215612b6657612b65613877565b5b600083013567ffffffffffffffff811115612b8457612b83613872565b5b612b9085828601612792565b92509250509250929050565b600060208284031215612bb257612bb1613877565b5b6000612bc0848285016127e8565b91505092915050565b60008060408385031215612be057612bdf613877565b5b6000612bee858286016127e8565b9250506020612bff858286016127e8565b9150509250929050565b6000612c158383612fa8565b60208301905092915050565b612c2a8161360c565b82525050565b6000612c3b826134fb565b612c458185613529565b9350612c50836134eb565b8060005b83811015612c81578151612c688882612c09565b9750612c738361351c565b925050600181019050612c54565b5085935050505092915050565b612c978161361e565b82525050565b6000612ca882613506565b612cb2818561353a565b9350612cc28185602086016136a1565b612ccb8161387c565b840191505092915050565b6000612ce182613511565b612ceb818561354b565b9350612cfb8185602086016136a1565b612d048161387c565b840191505092915050565b6000612d1c60348361354b565b9150612d278261389a565b604082019050919050565b6000612d3f60288361354b565b9150612d4a826138e9565b604082019050919050565b6000612d6260198361354b565b9150612d6d82613938565b602082019050919050565b6000612d85602b8361354b565b9150612d9082613961565b604082019050919050565b6000612da860268361354b565b9150612db3826139b0565b604082019050919050565b6000612dcb60248361354b565b9150612dd6826139ff565b604082019050919050565b6000612dee60298361354b565b9150612df982613a4e565b604082019050919050565b6000612e11600d8361354b565b9150612e1c82613a9d565b602082019050919050565b6000612e3460128361354b565b9150612e3f82613ac6565b602082019050919050565b6000612e5760258361354b565b9150612e6282613aef565b604082019050919050565b6000612e7a60328361354b565b9150612e8582613b3e565b604082019050919050565b6000612e9d600f8361354b565b9150612ea882613b8d565b602082019050919050565b6000612ec060238361354b565b9150612ecb82613bb6565b604082019050919050565b6000612ee3602a8361354b565b9150612eee82613c05565b604082019050919050565b6000612f0660208361354b565b9150612f1182613c54565b602082019050919050565b6000612f2960298361354b565b9150612f3482613c7d565b604082019050919050565b6000612f4c60298361354b565b9150612f5782613ccc565b604082019050919050565b6000612f6f60288361354b565b9150612f7a82613d1b565b604082019050919050565b6000612f9260218361354b565b9150612f9d82613d6a565b604082019050919050565b612fb181613688565b82525050565b612fc081613688565b82525050565b6000602082019050612fdb6000830184612c21565b92915050565b600060a082019050612ff66000830188612c21565b6130036020830187612c21565b81810360408301526130158186612c30565b905081810360608301526130298185612c30565b9050818103608083015261303d8184612c9d565b90509695505050505050565b600060608201905061305e6000830186612c21565b61306b6020830185612c21565b6130786040830184612fb7565b949350505050565b600060a0820190506130956000830188612c21565b6130a26020830187612c21565b6130af6040830186612fb7565b6130bc6060830185612fb7565b81810360808301526130ce8184612c9d565b90509695505050505050565b60006040820190506130ef6000830185612c21565b6130fc6020830184612fb7565b9392505050565b6000602082019050818103600083015261311d8184612c30565b905092915050565b6000604082019050818103600083015261313f8185612c30565b905081810360208301526131538184612c30565b90509392505050565b60006020820190506131716000830184612c8e565b92915050565b600060208201905081810360008301526131918184612cd6565b905092915050565b600060208201905081810360008301526131b281612d0f565b9050919050565b600060208201905081810360008301526131d281612d32565b9050919050565b600060208201905081810360008301526131f281612d55565b9050919050565b6000602082019050818103600083015261321281612d78565b9050919050565b6000602082019050818103600083015261323281612d9b565b9050919050565b6000602082019050818103600083015261325281612dbe565b9050919050565b6000602082019050818103600083015261327281612de1565b9050919050565b6000602082019050818103600083015261329281612e04565b9050919050565b600060208201905081810360008301526132b281612e27565b9050919050565b600060208201905081810360008301526132d281612e4a565b9050919050565b600060208201905081810360008301526132f281612e6d565b9050919050565b6000602082019050818103600083015261331281612e90565b9050919050565b6000602082019050818103600083015261333281612eb3565b9050919050565b6000602082019050818103600083015261335281612ed6565b9050919050565b6000602082019050818103600083015261337281612ef9565b9050919050565b6000602082019050818103600083015261339281612f1c565b9050919050565b600060208201905081810360008301526133b281612f3f565b9050919050565b600060208201905081810360008301526133d281612f62565b9050919050565b600060208201905081810360008301526133f281612f85565b9050919050565b600060208201905061340e6000830184612fb7565b92915050565b60006040820190506134296000830185612fb7565b6134366020830184612fb7565b9392505050565b6000613447613458565b90506134538282613706565b919050565b6000604051905090565b600067ffffffffffffffff82111561347d5761347c61380d565b5b602082029050602081019050919050565b600067ffffffffffffffff8211156134a9576134a861380d565b5b602082029050602081019050919050565b600067ffffffffffffffff8211156134d5576134d461380d565b5b6134de8261387c565b9050602081019050919050565b6000819050602082019050919050565b600081519050919050565b600081519050919050565b600081519050919050565b6000602082019050919050565b600082825260208201905092915050565b600082825260208201905092915050565b600082825260208201905092915050565b600061356782613688565b915061357283613688565b9250827fffffffffffffffffffffffffffffffffffffffffffffffffffffffffffffffff038211156135a7576135a6613780565b5b828201905092915050565b60006135bd82613688565b91506135c883613688565b9250817fffffffffffffffffffffffffffffffffffffffffffffffffffffffffffffffff048311821515161561360157613600613780565b5b828202905092915050565b600061361782613668565b9050919050565b60008115159050919050565b60007fffffffff0000000000000000000000000000000000000000000000000000000082169050919050565b60006136618261360c565b9050919050565b600073ffffffffffffffffffffffffffffffffffffffff82169050919050565b6000819050919050565b82818337600083830152505050565b60005b838110156136bf5780820151818401526020810190506136a4565b838111156136ce576000848401525b50505050565b600060028204905060018216806136ec57607f821691505b60208210811415613700576136ff6137af565b5b50919050565b61370f8261387c565b810181811067ffffffffffffffff8211171561372e5761372d61380d565b5b80604052505050565b600061374282613688565b91507fffffffffffffffffffffffffffffffffffffffffffffffffffffffffffffffff82141561377557613774613780565b5b600182019050919050565b7f4e487b7100000000000000000000000000000000000000000000000000000000600052601160045260246000fd5b7f4e487b7100000000000000000000000000000000000000000000000000000000600052602260045260246000fd5b7f4e487b7100000000000000000000000000000000000000000000000000000000600052603260045260246000fd5b7f4e487b7100000000000000000000000000000000000000000000000000000000600052604160045260246000fd5b600060033d111561385b5760046000803e61385860005161388d565b90505b90565b600080fd5b600080fd5b600080fd5b600080fd5b600080fd5b600080fd5b6000601f19601f8301169050919050565b60008160e01c9050919050565b7f455243313135353a207472616e7366657220746f206e6f6e204552433131353560008201527f526563656976657220696d706c656d656e746572000000000000000000000000602082015250565b7f455243313135353a204552433131353552656365697665722072656a6563746560008201527f6420746f6b656e73000000000000000000000000000000000000000000000000602082015250565b7f746f6b656e56616c75655075702063616e6e6f74206265203000000000000000600082015250565b7f455243313135353a2062616c616e636520717565727920666f7220746865207a60008201527f65726f2061646472657373000000000000000000000000000000000000000000602082015250565b7f4f776e61626c653a206e6577206f776e657220697320746865207a65726f206160008201527f6464726573730000000000000000000000000000000000000000000000000000602082015250565b7f455243313135353a206275726e20616d6f756e7420657863656564732062616c60008201527f616e636500000000000000000000000000000000000000000000000000000000602082015250565b7f455243313135353a2063616c6c6572206973206e6f74206f776e6572206e6f7260008201527f20617070726f7665640000000000000000000000000000000000000000000000602082015250565b7f696c6c6567616c20746f6b656e00000000000000000000000000000000000000600082015250565b7f62617365207572692069732066726f7a656e0000000000000000000000000000600082015250565b7f455243313135353a207472616e7366657220746f20746865207a65726f20616460008201527f6472657373000000000000000000000000000000000000000000000000000000602082015250565b7f455243313135353a207472616e736665722063616c6c6572206973206e6f742060008201527f6f776e6572206e6f7220617070726f7665640000000000000000000000000000602082015250565b7f696c6c6567616c20746f6b656e49640000000000000000000000000000000000600082015250565b7f455243313135353a206275726e2066726f6d20746865207a65726f206164647260008201527f6573730000000000000000000000000000000000000000000000000000000000602082015250565b7f455243313135353a20696e73756666696369656e742062616c616e636520666f60008201527f72207472616e7366657200000000000000000000000000000000000000000000602082015250565b7f4f776e61626c653a2063616c6c6572206973206e6f7420746865206f776e6572600082015250565b7f455243313135353a2073657474696e6720617070726f76616c2073746174757360008201527f20666f722073656c660000000000000000000000000000000000000000000000602082015250565b7f455243313135353a206163636f756e747320616e6420696473206c656e67746860008201527f206d69736d617463680000000000000000000000000000000000000000000000602082015250565b7f455243313135353a2069647320616e6420616d6f756e7473206c656e6774682060008201527f6d69736d61746368000000000000000000000000000000000000000000000000602082015250565b7f455243313135353a206d696e7420746f20746865207a65726f2061646472657360008201527f7300000000000000000000000000000000000000000000000000000000000000602082015250565b600060443d1015613dc957613e4c565b613dd1613458565b60043d036004823e80513d602482011167ffffffffffffffff82111715613df9575050613e4c565b808201805167ffffffffffffffff811115613e175750505050613e4c565b80602083010160043d038501811115613e34575050505050613e4c565b613e4382602001850186613706565b82955050505050505b90565b613e588161360c565b8114613e6357600080fd5b50565b613e6f8161361e565b8114613e7a57600080fd5b50565b613e868161362a565b8114613e9157600080fd5b50565b613e9d81613656565b8114613ea857600080fd5b50565b613eb481613688565b8114613ebf57600080fd5b5056fea2646970667358221220f2083006a8b2816d76f56254bf1d7f55be084d1b66a75adbdd59d074bd8979c764736f6c6343000807003368747470733a2f2f6173736574732e7075707079636f696e2e66756e2f6d657461646174612f636f6e74726163742e6a736f6e68747470733a2f2f6173736574732e7075707079636f696e2e66756e2f6d657461646174612f7b69647d2e6a736f6e",
  "immutableReferences": {},
  "source": "// SPDX-License-Identifier: MIT\npragma solidity >=0.8.0 <0.9.0;\n\nimport \"@openzeppelin/contracts/token/ERC1155/ERC1155.sol\";\nimport \"@openzeppelin/contracts/access/Ownable.sol\";\n\n/**\n * puppymint semi-fungible token very wow\n *\n * allows users to wrap their PUP erc20 tokens into erc1155 sfts of specific denominations\n *\n * anybody can mint a coin by storing PUP erc20 in this contract\n * anybody can redeem a coin for its ascribed PUP erc20 value at any time\n */\ncontract PuppyMint is ERC1155, Ownable {\n    string public name = \"PuppyCoin\";\n    string public symbol = \"PUP\";\n    string private _metadataURI = \"https://assets.puppycoin.fun/metadata/{id}.json\";\n    string private _contractUri = \"https://assets.puppycoin.fun/metadata/contract.json\";\n\n    IPuppyCoin puppyCoinContract = IPuppyCoin(_pupErc20Address());\n    uint private MILLI_PUP_PER_PUP = 1000; // PUP erc20 has 3 decimals\n\n    mapping(uint => uint) public valuePupByTokenId;\n    uint public nextAvailableTokenId = 1;\n    bool public baseUriFrozen = false;\n\n    constructor() public ERC1155(_metadataURI) {}\n\n    /**\n     * gets the contract address for the PUP erc20 token.\n     */\n    function _pupErc20Address() internal view returns(address) {\n        address addr;\n        assembly {\n            switch chainid()\n            case 1 {\n                // mainnet\n                addr := 0x2696Fc1896F2D5F3DEAA2D91338B1D2E5f4E1D44\n            }\n            case 4 {\n                // rinkeby\n                addr := 0x183B665119F1289dFD446a2ebA29f858eE0D3224\n            }\n        }\n        return addr;\n    }\n\n    /**\n     * mint one or more puppymint sfts of the provided id\n     *\n     * sender must have first called approve() on the PUP token contract w/ this contract's address\n     * for greater than or equal to the token id's pup value times numToMint\n     */\n    function mint(uint tokenId, uint numToMint) public {\n        // the contract owner must have set this tokenId\n        uint tokenValuePup = valuePupByTokenId[tokenId];\n        require(tokenValuePup > 0, \"illegal tokenId\");\n\n        // transfer PUP from the sender to this contract\n        uint256 totalCostMilliPup = tokenValuePup * MILLI_PUP_PER_PUP * numToMint;\n        puppyCoinContract.transferFrom(\n            msg.sender,\n            address(this),\n            totalCostMilliPup\n        );\n\n        // mint one (or more) sfts, using denominationPup as the tokenId\n        _mint(msg.sender, tokenId, numToMint, \"\");\n    }\n\n    /**\n     * redeem one (or more) sfts for PUP\n     */\n    function redeem(uint tokenId, uint numToRedeem) public {\n        // burn the sft(s)\n        _burn(msg.sender, tokenId, numToRedeem);\n\n        // send PUP to the caller\n        uint tokenValuePup = valuePupByTokenId[tokenId];\n        require(tokenValuePup > 0, \"illegal token\");\n        uint milliPupToSend = tokenValuePup * MILLI_PUP_PER_PUP * numToRedeem;\n        puppyCoinContract.transfer(\n            msg.sender,\n            milliPupToSend\n        );\n    }\n\n    function contractURI() public view returns (string memory) {\n      return _contractUri;\n    }\n\n    /**\n     * creates a new token type with the provided value in PUP. \n     */\n    function createNewToken(uint tokenValuePup)\n        public\n        onlyOwner\n    {\n        require(tokenValuePup > 0, \"tokenValuePup cannot be 0\");\n        valuePupByTokenId[nextAvailableTokenId] = tokenValuePup;\n        nextAvailableTokenId = nextAvailableTokenId + 1;\n    }\n\n    function setContractUri(string calldata newUri) public onlyOwner {\n      _contractUri = newUri;\n    }\n\n    function setBaseUri(string calldata newUri) public onlyOwner {\n        require(!baseUriFrozen, \"base uri is frozen\");\n        _setURI(newUri);\n    }\n\n    function isApprovedForAll(address owner, address operator) public view override returns (bool) {\n        return OpenSeaGasFreeListing.isApprovedForAll(owner, operator) || super.isApprovedForAll(owner, operator);\n    }\n\n    /**\n     * DANGER BETCH! only call this if you're sure the current URI is good forever\n     */\n    function freezeBaseUri() public onlyOwner {\n        baseUriFrozen = true;\n    }\n}\n\n/**\n * very wow interface for the PUP erc-20 token\n */\ninterface IPuppyCoin {\n    function transferFrom(\n        address sender,\n        address recipient,\n        uint256 amount\n    ) external;\n\n    function transfer(\n        address recipient,\n        uint256 amount\n    ) external;\n}\n\n/**\n * much trust allow gas-free listing on opensea\n */\nlibrary OpenSeaGasFreeListing {\n    function isApprovedForAll(address owner, address operator) internal view returns (bool) {\n        ProxyRegistry registry;\n        assembly {\n            switch chainid()\n            case 1 {\n                // mainnet\n                registry := 0xa5409ec958c83c3f309868babaca7c86dcb077c1\n            }\n            case 4 {\n                // rinkeby\n                registry := 0xf57b2c51ded3a29e6891aba85459d600256cf317\n            }\n        }\n\n        return address(registry) != address(0) && address(registry.proxies(owner)) == operator;\n    }\n}\n\ncontract OwnableDelegateProxy {}\n\ncontract ProxyRegistry {\n    mapping(address => OwnableDelegateProxy) public proxies;\n}",
  "sourcePath": "/Users/puppy/puppymint/contracts/PuppyMint.sol",
  "compiler": {
    "name": "solc",
    "version": "0.8.7+commit.e28d00a7.Emscripten.clang"
  },
  "schemaVersion": "3.4.2",
  "updatedAt": "2022-01-15T15:57:37.618Z",
  "networkType": "ethereum",
  "devdoc": {
    "kind": "dev",
    "methods": {
      "balanceOf(address,uint256)": {
        "details": "See {IERC1155-balanceOf}. Requirements: - `account` cannot be the zero address."
      },
      "balanceOfBatch(address[],uint256[])": {
        "details": "See {IERC1155-balanceOfBatch}. Requirements: - `accounts` and `ids` must have the same length."
      },
      "owner()": {
        "details": "Returns the address of the current owner."
      },
      "renounceOwnership()": {
        "details": "Leaves the contract without owner. It will not be possible to call `onlyOwner` functions anymore. Can only be called by the current owner. NOTE: Renouncing ownership will leave the contract without an owner, thereby removing any functionality that is only available to the owner."
      },
      "safeBatchTransferFrom(address,address,uint256[],uint256[],bytes)": {
        "details": "See {IERC1155-safeBatchTransferFrom}."
      },
      "safeTransferFrom(address,address,uint256,uint256,bytes)": {
        "details": "See {IERC1155-safeTransferFrom}."
      },
      "setApprovalForAll(address,bool)": {
        "details": "See {IERC1155-setApprovalForAll}."
      },
      "supportsInterface(bytes4)": {
        "details": "See {IERC165-supportsInterface}."
      },
      "transferOwnership(address)": {
        "details": "Transfers ownership of the contract to a new account (`newOwner`). Can only be called by the current owner."
      },
      "uri(uint256)": {
        "details": "See {IERC1155MetadataURI-uri}. This implementation returns the same URI for *all* token types. It relies on the token type ID substitution mechanism https://eips.ethereum.org/EIPS/eip-1155#metadata[defined in the EIP]. Clients calling this function must replace the `\\{id\\}` substring with the actual token type ID."
      }
    },
    "version": 1
  },
  "userdoc": {
    "kind": "user",
    "methods": {
      "createNewToken(uint256)": {
        "notice": "creates a new token type with the provided value in PUP. "
      },
      "freezeBaseUri()": {
        "notice": "DANGER BETCH! only call this if you're sure the current URI is good forever"
      },
      "mint(uint256,uint256)": {
        "notice": "mint one or more puppymint sfts of the provided id sender must have first called approve() on the PUP token contract w/ this contract's address for greater than or equal to the token id's pup value times numToMint"
      },
      "redeem(uint256,uint256)": {
        "notice": "redeem one (or more) sfts for PUP"
      }
    },
    "notice": "puppymint semi-fungible token very wow allows users to wrap their PUP erc20 tokens into erc1155 sfts of specific denominations anybody can mint a coin by storing PUP erc20 in this contract anybody can redeem a coin for its ascribed PUP erc20 value at any time",
    "version": 1
  }
}